:020000040800F2
:10000000005000204D1D0008810B0008830B0008E4
:10001000850B0008870B0008890B00080000000012
:100020000000000000000000000000008B0B000832
:100030008D0B0008000000008F0B0008910B0008DA
:10004000951D0008951D0008951D0008951D0008C8
:10005000951D0008951D0008951D0008951D0008B8
:10006000951D0008951D0008951D0008951D0008A8
:10007000951D0008951D0008951D0008951D000898
:10008000951D0008951D0008951D0008951D000888
:10009000951D0008951D0008951D0008951D000878
:1000A000951D0008951D0008951D0008951D000868
:1000B000951D0008990B0008951D0008951D000866
:1000C000951D0008951D0008951D0008951D000848
:1000D000951D0008951D0008951D0008951D000838
:1000E000951D0008951D0008951D000800000000E2
:1000F0000000000000000000000000000000000000
:0C01000000000000000000005FF808F1A3
:10010C00034613F8012B002AFBD1181A013870474B
:10011C000348044B834202D0034B03B1184770478A
:10012C007400002074000020000000000548064BFD
:10013C001B1AD90F01EBA301491002D0034B03B1D9
:10014C001847704774000020740000200000000065
:10015C0010B5064C237843B9FFF7DAFF044B13B103
:10016C000448AFF300800123237010BD74000020FD
:10017C00000000002027000808B5054B1BB10549FD
:10018C000548AFF30080BDE80840FFF7CFBF00BFC4
:10019C000000000078000020202700082DE9F04125
:1001AC0088B000240494059406940794294B9A690A
:1001BC0042F010029A619A6902F010020092009AC1
:1001CC009A6942F020029A619A6902F02002019227
:1001DC00019A9A6942F008029A619A6902F008023F
:1001EC000292029A9A6942F004029A619B6903F0A6
:1001FC0004030393039BDFF8608022464FF4005105
:10020C00404600F0BAFE154D22463821284600F033
:10021C00B4FE4FF40053049301260596069402276E
:10022C00079704A9404600F093FD0323049305941B
:10023C00069604A9284600F08BFD382304930596F6
:10024C000694079704A9284600F082FD08B0BDE883
:10025C00F08100BF0010024000100140000C014072
:10026C00F8B50F4616461D4602464FF400510A4893
:10027C0000F083FE094C3A460821204600F07DFE32
:10028C0032461021204600F078FE2A4620212046D6
:10029C0000F073FEF8BD00BF00100140000C0140DF
:1002AC0010B5104B1B78012B12D04FF400510E4897
:1002BC0000F069FE0D4C0821204600F064FE102170
:1002CC00204600F060FE2021204600F05CFE10BDB0
:1002DC0000231A4619461846FFF7C2FF014B0022AD
:1002EC001A70F4E70800002000100140000C0140D7
:1002FC0008B5124B1B78012B0CD0022B14D003B178
:10030C0008BD1A4601211846FFF7AAFF0B4B012224
:10031C001A70F5E70023012219461046FFF7A0FFDB
:10032C00064B02221A70EBE70123002211461046FD
:10033C00FFF796FF014B00221A70E1E7B600002090
:10034C0008B5184B1B78032B0CD8DFE803F0020C14
:10035C00162000231A4619460120FFF781FF114B86
:10036C0001221A7008BD00231A4601211846FFF716
:10037C0077FF0C4B02221A70F4E70023012211467E
:10038C001846FFF76DFF074B03221A70EAE70123AB
:10039C001A4619461846FFF763FF024B00221A70E3
:1003AC00E0E700BFB50000200A4B1B78012B09D0F9
:1003BC00022B0BD003B170470123074A1370054A77
:1003CC0013707047034B02221A707047014B0022C6
:1003DC001A70F0E7B70000200800002008B5084BA1
:1003EC001B78012B06D0022B07D003B108BDFFF7F9
:1003FC0057FFFBE7FFF77CFFF8E7FFF7A1FFF5E7F7
:10040C00B700002008B5034B834200D008BDFFF7AE
:10041C00E5FFFBE72401002008B50121354800F079
:10042C00A5FD354B1870354B1B78354A1370072BCF
:10043C0008D8DFE803F004080E162F484C502F4B59
:10044C0001221A7008BD0028FCD12C4B02221A7014
:10045C00F8E700F0E9FB2B4B1860284B03221A70CD
:10046C00F0E700F0E1FB284B1860264B1B68C01A24
:10047C00264B1860204B1B78012B07D0244B1B6894
:10048C009842DFD91D4B04221A70DBE71B4B00226C
:10049C001A70F3E700F0C8FB1B4B1860194B1B6874
:1004AC00C01A1A4B1860144B1B78012B07D0194B30
:1004BC001B689842C6D9114B06221A70C2E70F4B23
:1004CC0005221A70F3E70D4B00221A70BAE70B4B9A
:1004DC0007221A70B6E70128B4D100F0A5FB0A4B2D
:1004EC001860084B1B68C01A0B4B1860034B00229A
:1004FC001A70A7E7000C014015000020DB0000205B
:10050C00D9000020CC000020D4000020C400002022
:10051C00100000200C000020BC00002008B50221B7
:10052C00354800F023FD354B1870354B1B78354A98
:10053C001370072B08D8DFE803F004080E162F48B9
:10054C004C502F4B01221A7008BD0028FCD12C4BAB
:10055C0002221A70F8E700F067FB2B4B1860284B4F
:10056C0003221A70F0E700F05FFB284B1860264B53
:10057C001B68C01A264B1860204B1B78012B07D028
:10058C00244B1B689842DFD91D4B04221A70DBE701
:10059C001B4B00221A70F3E700F046FB1B4B186054
:1005AC00194B1B68C01A1A4B1860144B1B78012B83
:1005BC0007D0194B1B689842C6D9114B06221A70EA
:1005CC00C2E70F4B05221A70F3E70D4B00221A708D
:1005DC00BAE70B4B07221A70B6E70128B4D100F02A
:1005EC0023FB0A4B1860084B1B68C01A0B4B186096
:1005FC00034B00221A70A7E7000C014014000020E6
:10060C00DA000020D8000020C8000020D000002014
:10061C00C0000020100000200C000020B8000020BA
:10062C0010B50446FFF76CFD642382B221460248E4
:10063C0001F026FB10BD00BFDC00002008B5FFF761
:10064C00B3FE0248FFF7ECFF08BD00BF38270008D7
:10065C0008B572B60148FFF7E3FFFBE75027000827
:10066C0000B587B000230293039304930593009382
:10067C0001931448144A12684260144A1268C2600A
:10068C00134A0260836003618023836101F04CF99B
:10069C0090B94FF48053029302A90A4801F07CF9F7
:1006AC0060B90023009301936946064801F0F4F900
:1006BC0030B907B05DF804FBFFF7CAFFFFF7C8FFBE
:1006CC00FFF7C6FF240100200400002000000020DA
:1006DC000004004010B5184801F012F808BB164889
:1006EC0000F0ABFFF8B9154B1B6840F2E7329342B0
:1006FC001BD0A3F57A73114A1360FFF7B1FF0E48B4
:10070C0000F0CAFFB0B90E4C0C4B1A680D492046CC
:10071C0001F060FB2046FFF783FF0B48FFF780FFDB
:10072C0010BDFFF795FFFFF793FF044B44F61F62D4
:10073C001A60E2E7FFF78CFF240100200000002084
:10074C00900000205C27000878270008264B1B78B7
:10075C001BB9254B00221A70704710B5234B1B6830
:10076C00234AA2FB0323C3F38713C3EB431203EB0C
:10077C008204E400A4B21F4800F0C2FF40BB1D4835
:10078C0000F05BFF30BB1C4B1B681A1B002A23DDDF
:10079C001346194A1360FFF763FF164800F07CFFFD
:1007AC00F8B9164C144B1A681549204601F012FB87
:1007BC002046FFF735FF0D4B1A681249204601F011
:1007CC0009FB2046FFF72CFF074B00221A7010BDC7
:1007DC00FFF73EFFFFF73CFF074B44F61F621A6022
:1007EC00D9E7FFF735FF00BFB4000020BC000020A4
:1007FC001F85EB51240100200000002090000020F8
:10080C005C27000890270008254B1B781BB9244B4C
:10081C0000221A70704710B5224B1B68224AA2FBAB
:10082C000323C3F38713C3EB431203EB8203DB00F5
:10083C009CB21E4800F064FF48BB1C4800F0FDFE53
:10084C0038BB1B4B1B68234444F61F62934222D9CE
:10085C00174B1A60FFF704FF144800F01DFFE8B9AE
:10086C00144C134B1A681449204601F0B3FA204675
:10087C00FFF7D6FE0B4B1A681049204601F0AAFA76
:10088C002046FFF7CDFE064B00221A7010BDFFF775
:10089C00DFFEFFF7DDFE064A1360DBE7FFF7D8FE4D
:1008AC00B3000020B80000201F85EB51240100206C
:1008BC0000000020900000205C2700089027000812
:1008CC0008B50A480A4B03604FF4E1334360002338
:1008DC008360C36003610C2242618361C36101F0D8
:1008EC009FF900B908BDFFF7B3FE00BFDC00002084
:1008FC000038014000B591B02822002106A801F073
:10090C0089FA002301930293039304930593012224
:10091C0006924FF4803307930A9202220D920E93A3
:10092C004FF4E0130F9306A800F04CFB80B90F2393
:10093C00019302210291002303934FF480620492ED
:10094C00059301A800F070FD20B911B05DF804FB0F
:10095C00FFF77EFEFFF77CFE08B500F047F9FFF7C6
:10096C00C9FFFFF71BFCFFF7ABFFFFF779FE2C4825
:10097C0000F092FE00282ED1FFF74EFDFFF7CEFDC2
:10098C00284B1B78052B28D0264B1B78062B27D001
:10099C00244B1B785BB3244B1B78052B2AD0224BA2
:1009AC001B78062B29D0204B1B786BB31F4B1B7865
:1009BC001C4A127893422AD11D4B1B781A4A127882
:1009CC009342D9D01B4C1C49204601F003FA204617
:1009DC00FFF726FED0E7FFF73BFEFFF77BFED3E7E2
:1009EC001648FFF71DFE164B01221A70D0E7FFF7D1
:1009FC00ADFED0E7FFF722FED1E71248FFF710FE5D
:100A0C00114B01221A70CEE7FFF7FEFECEE7094C20
:100A1C000E49204601F0DEF92046FFF701FECBE738
:100A2C0024010020DB000020DA000020D900002087
:100A3C00D800002090000020E4270008AC27000814
:100A4C00B4000020BC270008B3000020CC2700080D
:100A5C0082B00E4B9A6942F001029A619A6902F0D7
:100A6C0001020092009ADA6942F08052DA61DB6985
:100A7C0003F080530193019B054A536823F0E06314
:100A8C0043F00073536002B0704700BF0010024087
:100A9C000000014002680E4B9A4200D0704700B52E
:100AAC0083B003F50333DA6942F00202DA61DB69E1
:100ABC0003F002030193019B002211461D2000F05C
:100ACC0011F91D2000F01EF903B05DF804FB00BF06
:100ADC000004004008B50268064B9A4200D008BDDD
:100AEC00054AD36923F00203D3611D2000F018F9E5
:100AFC00F5E700BF000400400010024010B586B0BE
:100B0C00002302930393049305930268174B9A42B4
:100B1C0001D006B010BD03F558439A6942F48042E7
:100B2C009A619A6902F480420092009A9A6942F0A2
:100B3C0004029A619B6903F004030193019B4FF437
:100B4C00007302930223039303230593084C02A919
:100B5C00204600F0FDF84FF48063029300230393CA
:100B6C00049302A9204600F0F3F8D2E700380140C4
:100B7C0000080140FEE7FEE7FEE7FEE7FEE77047F0
:100B8C007047704708B500F043F808BD08B5024837
:100B9C0000F0D3FD08BD00BF240100207047000009
:100BAC0010B504460E4B1A784FF47A73B3FBF2F37C
:100BBC000C4A1068B0FBF3F000F0B6F868B90F2CD3
:100BCC0001D901200AE0002221464FF0FF3000F04D
:100BDC0089F8054B1C60002000E0012010BD00BF0F
:100BEC001C000020180000202000002008B5074A37
:100BFC00136843F010031360032000F061F80F201A
:100C0C00FFF7CEFFFFF724FF002008BD00200240B5
:100C1C00034A1168034B1B780B441360704700BFE9
:100C2C006C0100201C000020014B1868704700BFAD
:100C3C006C01002000280CDB00F01F02400901238E
:100C4C0093402030034A42F82030BFF34F8FBFF35C
:100C5C006F8F704700E100E0002808DB0901C9B282
:100C6C0000F1604000F5614080F80013704700F01F
:100C7C000F000901C9B2014B1954704714ED00E083
:100C8C0000B500F00700C0F1070CBCF1040F28BF41
:100C9C004FF0040C031D062B0FD9C31E4FF0FF3E63
:100CAC000EFA0CF021EA000199400EFA03FE22EA3A
:100CBC000E0241EA02005DF804FB0023EEE700009F
:100CCC00074AD36823F4E0631B041B0C000200F4F6
:100CDC00E060034343F0BF6343F40033D3607047D9
:100CEC0000ED00E010B50446054BD868C0F30220B7
:100CFC00FFF7C6FF01462046FFF7AEFF10BD00BF51
:100D0C0000ED00E0002807DB00F01F024009012382
:100D1C009340024A42F82030704700BF00E100E0E7
:100D2C0008B5FFF787FF08BD0138B0F1807F0BD203
:100D3C004FF0E0235861054AF02182F8231000207F
:100D4C00986107221A6170470120704700ED00E09E
:100D5C0070B582B00024A446A2E07E4DAB4210D008
:100D6C0007D97D4DAB420CD005F58035AB4208D090
:100D7C0013E0A5F58015AB4203D005F57025AB4209
:100D8C0007D18B68002B55D0012B4ED04261082423
:100D9C0003E0A5F58015AB42F3D0BEF1FF0F4BD8A5
:100DAC0006464FEA8C0233680F25954023EA05036B
:100DBC0004FA02F2134333604B6813F0805F6DD07A
:100DCC00664B9A6942F001029A619B6903F0010338
:100DDC000193019B4FEA9C02951C614B53F82560D3
:100DEC000CF00305AD000F23AB4026EA03065D4B68
:100DFC00984228D003F58063984200F08D8003F56B
:100E0C008063984200F08A8003F58063984218D082
:100E1C00042319E0CC68C0E7CC680434BDE7CC6887
:100E2C000834BAE7CC680C34B7E702610824B4E79D
:100E3C000024B2E70424B0E7061DACF108029200CE
:100E4C00B1E7032300E00023AB4033430232444DAF
:100E5C0045F822304B6813F4801F61D0424A9368E6
:100E6C0043EA0E0393604B6813F4001F5ED03E4AB6
:100E7C00D36843EA0E03D3604B6813F4003F5BD096
:100E8C00394A536843EA0E0353604B6813F4803FAE
:100E9C0058D0354A136843EA0E0313600CF1010C69
:100EAC000B6833FA0CF253D0012202FA0CF203EA6B
:100EBC00020E32EA0303F1D14B68122B3FF64DAF11
:100ECC00122B3FF66AAF01A555F823F08F0D0008E1
:100EDC00210E00082B0E00083D0E0008A70D00087F
:100EEC00A70D0008A70D0008A70D0008A70D000806
:100EFC00A70D0008A70D0008A70D0008A70D0008F6
:100F0C00A70D0008A70D0008A70D0008A70D0008E5
:100F1C00250E0008310E0008012395E7022393E704
:100F2C00114A936823EA0E0393609CE70E4AD36838
:100F3C0023EA0E03D3609FE70B4A536823EA0E03A0
:100F4C005360A2E7084A136823EA0E031360A5E76F
:100F5C0002B070BD000022100000311000100240E1
:100F6C000000014000080140000401408368194260
:100F7C0001D001207047002070470AB10161704711
:100F8C00090401617047C36801EA030221EA030105
:100F9C0041EA02410161704782B0084B1B68084A64
:100FAC00A2FB03235B0A00FB03F3019300BF019B2D
:100FBC005A1E0192002BF9D102B070471800002084
:100FCC00D34D6210002800F0F18170B582B0044658
:100FDC00036813F0010F2CD0994B5B6803F00C03E2
:100FEC00042B1DD0964B5B6803F00C03082B12D01E
:100FFC006368B3F5803F41D0002B55D103F180439A
:10100C0003F504331A6822F480321A601A6822F449
:10101C0080221A6037E08A4B5B6813F4803FE7D07C
:10102C00874B1B6813F4003F03D06368002B00F060
:10103C00BF81236813F0020F75D0814B5B6813F0EE
:10104C000C0F5FD07E4B5B6803F00C03082B54D065
:10105C002369002B00F08A807A4B01221A60FFF77B
:10106C00E3FD0546764B1B6813F0020F75D1FFF7B5
:10107C00DBFD401B0228F5D903209EE1704A136862
:10108C0043F480331360636843B3FFF7CDFD05462B
:10109C006B4B1B6813F4003FCBD1FFF7C5FD401B16
:1010AC006428F5D9032088E1B3F5A02F09D0644B4F
:1010BC001A6822F480321A601A6822F480221A60AC
:1010CC00E1E703F18043A3F53C331A6842F4802234
:1010DC001A601A6842F480321A60D4E7FFF7A4FD54
:1010EC000546574B1B6813F4003FA2D0FFF79CFD3D
:1010FC00401B6428F5D903205FE1514B5B6813F466
:10110C00803FA5D14E4B1B6813F0020F03D023690F
:10111C00012B40F04F814A4A136823F0F8036169B0
:10112C0043EAC1031360236813F0080F33D0A3699B
:10113C00002B5CD0434B0122C3F88024FFF774FDD5
:10114C0005463F4B5B6A13F0020F21D1FFF76CFD94
:10115C00401B0228F5D903202FE1394A136823F0EC
:10116C00F803616943EAC1031360DCE7354B0022E5
:10117C001A60FFF759FD0546314B1B6813F0020F3F
:10118C00D1D0FFF751FD401B0228F5D9032014E103
:10119C000120FFF701FF236813F0040F00F0968085
:1011AC00274BDB6913F0805F34D1254BDA6942F0B1
:1011BC008052DA61DB6903F080530193019B0125B6
:1011CC00214B1B6813F4807F26D0E368012B3DD0A4
:1011DC00002B53D103F1804303F504331A6A22F038
:1011EC0001021A621A6A22F004021A6233E0154BE9
:1011FC000022C3F88024FFF717FD0546104B5B6AED
:10120C0013F0020FC7D0FFF70FFD401B0228F5D9D2
:10121C000320D2E00025D3E70B4A136843F4807314
:10122C001360FFF701FD0646074B1B6813F4807F24
:10123C00CBD1FFF7F9FC801B6428F5D90320BCE067
:10124C000010024000004242007000405F4A136AE6
:10125C0043F001031362E36833B3FFF7E5FC064682
:10126C005A4B1B6A13F0020F2FD1FFF7DDFC801BCA
:10127C0041F288339842F3D903209EE0052B09D024
:10128C00524B1A6A22F001021A621A6A22F0040204
:10129C001A62E0E74D4B1A6A42F004021A621A6AAB
:1012AC0042F001021A62D6E7FFF7BEFC0646474B36
:1012BC001B6A13F0020F08D0FFF7B6FC801B41F23B
:1012CC0088339842F3D9032077E0E5B9E369002B22
:1012DC0072D03E4A526802F00C02082A56D0022BF9
:1012EC0017D03B4B00221A66FFF79EFC0446374B87
:1012FC001B6813F0007F47D0FFF796FC001B0228F9
:10130C00F5D9032059E0314AD36923F08053D361D6
:10131C00DCE72F4B00221A66FFF786FC05462B4BA9
:10132C001B6813F0007F06D0FFF77EFC401B0228E1
:10133C00F5D9032041E0236AB3F5803F1AD0234945
:10134C004B6823F47413226A606A024313434B60A4
:10135C001F4B01221A66FFF767FC04461B4B1B68E8
:10136C0013F0007F0ED1FFF75FFC001B0228F5D9AC
:10137C00032022E0154A536823F40033A1680B4381
:10138C005360DCE7002018E0002016E0012B16D09B
:10139C000E4B5B6803F48031226A914211D103F445
:1013AC007013626A93420ED1002006E00120704750
:1013BC00012002E0012000E0002002B070BD0120FD
:1013CC00FBE70120F9E70120F7E700BF001002401E
:1013DC00000042420F4B5B6803F00C02082A01D05C
:1013EC000D487047C3F383420C49885C13F4803F6B
:1013FC000BD0084B5B68C3F34043094AD35C064AE5
:10140C0002FB00F0B0FBF3F07047064B03FB00F05F
:10141C00704700BF0010024000127A001828000824
:10142C001428000800093D00002800F0A08070B5C9
:10143C000D460446524B1B6803F007038B420BD23C
:10144C004F4A136823F007030B431360136803F030
:10145C0007038B4240F08D80236813F0020F17D0E6
:10146C0013F0040F04D0474A536843F4E06353600D
:10147C00236813F0080F04D0424A536843F46053B6
:10148C005360404A536823F0F003A1680B43536048
:10149C00236813F0010F31D06368012B20D0022B8D
:1014AC0025D0384A126812F0020F64D035494A68C8
:1014BC0022F0030213434B60FFF7B6FB0646314B99
:1014CC005B6803F00C036268B3EB820F16D0FFF776
:1014DC00ABFB801B41F288339842F0D9032045E0E6
:1014EC00284A126812F4003FE0D101203EE0254A60
:1014FC00126812F0007FD9D1012037E0204B1B6815
:10150C0003F00703AB420AD91D4A136823F0070303
:10151C002B431360136803F00703AB422DD12368F0
:10152C0013F0040F06D0174A536823F4E063E16804
:10153C000B435360236813F0080F07D0114A53680C
:10154C0023F46053216943EAC1035360FFF742FF60
:10155C000C4B5B68C3F303130B4AD35CD8400B4BA7
:10156C0018600B4B1868FFF71BFB002070BD0120A7
:10157C0070470120FAE70120F8E70120F6E700BFE9
:10158C00002002400010024004280008180000202F
:10159C0020000020014B1868704700BF1800002085
:1015AC0008B5FFF7F7FF044B5B68C3F30223034A4C
:1015BC00D35CD84008BD00BF00100240FC270008D7
:1015CC0008B5FFF7E7FF044B5B68C3F3C223034A7C
:1015DC00D35CD84008BD00BF00100240FC270008B7
:1015EC0010B4036A046A24F001040462846924F0D0
:1015FC00F00C4CEA021223F00A030B4382610362E3
:10160C0010BC704710B4036A046A24F0100404621E
:10161C00846924F4704C4CEA023223F0A00343EAB0
:10162C0001138261036210BC7047836823F070035E
:10163C000B4343F007038360704710B50446022345
:10164C0080F83D300368196A41F21112114208D139
:10165C00196A40F24442114203D11A6822F0010285
:10166C001A602046FFF736FA002084F8460084F80A
:10167C003E0084F83F0084F8400084F8410084F870
:10168C00420084F8430084F8440084F8450084F850
:10169C003D0084F83C0010BD90F83D30DBB2012BCE
:1016AC0027D1022380F83D300268D36843F0010350
:1016BC00D3600368114A934210D0B3F1804F0DD020
:1016CC00A2F59432934209D002F58062934205D080
:1016DC001A6842F001021A60002070479A6802F002
:1016EC000702062A07D01A6842F001021A6000208D
:1016FC007047012070470020704700BF002C01404C
:10170C000268D36823F00103D3600368196A41F2BD
:10171C001112114208D1196A40F24442114203D10C
:10172C001A6822F001021A60012380F83D30002073
:10173C007047704770477047704710B50446036890
:10174C001A6912F0020F11D0DA6812F0020F0DD0E4
:10175C006FF002021A610123037703689B6913F08F
:10176C00030F70D0FFF7E6FF0023237723681A6975
:10177C0012F0040F12D0DA6812F0040F0ED06FF0D2
:10178C0004021A610223237723689B6913F4407FB8
:10179C005FD02046FFF7CEFF0023237723681A691A
:1017AC0012F0080F12D0DA6812F0080F0ED06FF09A
:1017BC0008021A61042323772368DB6913F0030FF3
:1017CC004ED02046FFF7B6FF0023237723681A6913
:1017DC0012F0100F12D0DA6812F0100F0ED06FF05A
:1017EC0010021A61082323772368DB6913F4407F06
:1017FC003DD02046FFF79EFF0023237723681A690C
:10180C0012F0010F03D0DA6812F0010F36D1236801
:10181C001A6912F0800F03D0DA6812F0800F34D1FD
:10182C0023681A6912F0400F03D0DA6812F0400FE7
:10183C0032D123681A6912F0200F03D0DA6812F043
:10184C00200F30D110BDFFF774FF2046FFF773FF58
:10185C008AE72046FFF76DFF2046FFF76CFF9BE7FA
:10186C002046FFF766FF2046FFF765FFACE72046F2
:10187C00FFF75FFF2046FFF75EFFBDE76FF0010249
:10188C001A612046FEF7BEFDC1E76FF080021A61B7
:10189C00204600F038F9C3E76FF040021A61204689
:1018AC00FFF74AFFC5E76FF020021A61204600F0EF
:1018BC0029F9C7E703681B4A90420AD0B0F1804F60
:1018CC0007D0A2F59432904203D002F58062904288
:1018DC0003D123F070034A681343124A90420AD092
:1018EC00B0F1804F07D0A2F59432904203D002F5AC
:1018FC008062904203D123F44073CA68134323F0EF
:10190C0080034A69134303608B68C3620B6883626C
:10191C00044B984202D00123436170470B69036367
:10192C00F9E700BF002C014040B310B5044690F815
:10193C003D30F3B1022384F83D30214651F8040BBD
:10194C00FFF7B8FF012384F8463084F83E3084F862
:10195C003F3084F8403084F8413084F8423084F8C9
:10196C00433084F8443084F8453084F83D3000200E
:10197C0010BD80F83C30FFF78DF8DBE70120704795
:10198C0010B4846824F47F4C42EA03220A4342EAEE
:10199C000C02826010BC704790F83C30012B78D060
:1019AC0010B50446012380F83C30022380F83D300A
:1019BC000268936823F47F4323F0770393600B68EA
:1019CC00602B4CD029D8402B54D00CD9502B22D181
:1019DC00CA6849680068FFF703FE50212068FFF7CA
:1019EC0024FE002005E0202B0DD009D9302B0AD085
:1019FC000120012384F83D30002384F83C3010BDD5
:101A0C000BB1102B05D119462068FFF70EFE0020F4
:101A1C00EFE70120EDE70120EBE7B3F5805F34D071
:101A2C00B3F5005F0CD1CB684A6889680068FFF792
:101A3C00A7FF2268936843F4804393600020D8E7A3
:101A4C00702B24D1CB684A6889680068FFF798FF2F
:101A5C002268936843F0770393600020C9E7CA6853
:101A6C0049680068FFF7CEFD60212068FFF7DDFDB7
:101A7C000020BEE7CA6849680068FFF7B1FD402145
:101A8C002068FFF7D2FD0020B3E70020B1E701206A
:101A9C00AFE702207047000090F83C20012A2CD0C0
:101AAC0010B40346012280F83C20022280F83D202D
:101ABC0002685068946820F0700C086840EA0C00CA
:101ACC0050601A680E4882420AD0B2F1804F07D09B
:101ADC00A0F59430824203D000F58060824204D19C
:101AEC0024F08004496821439160012283F83D2051
:101AFC00002083F83C0010BC70470220704700BFE8
:101B0C00002C01407047704710B5044602681369F9
:101B1C0023F44053C1680B43136183680269134378
:101B2C0042691A430168CB6823F4B05323F00C03C9
:101B3C001343CB600268536923F4407381690B43F0
:101B4C0053610268134B9A4220D0FFF729FD0246DD
:101B5C0002EB820202EB820263689B00B2FBF3F29F
:101B6C000D48A0FB02314909642303FB11231B011F
:101B7C003233A0FB03035B0903F0F00202EB01120A
:101B8C0003F00F03216813448B6010BDFFF718FDA1
:101B9C000246DDE7003801401F85EB512DE9F84383
:101BAC0005460F4616469946DDF820802B681C68C2
:101BBC0037EA04040CBF01240024B4422DD1B8F13F
:101BCC00FF3FF3D0B8F1000F05D0FFF72DF8A0EBD5
:101BDC0009004045EAD92A6802F10C0353E8003F9A
:101BEC0023F4D0730C3242E800310029F3D12A6877
:101BFC0002F1140353E8003F23F00103143242E8CE
:101C0C0000310029F3D1202385F8413085F842308A
:101C1C00002385F84030032000E00020BDE8F88365
:101C2C0060B310B5044690F8413013B3242384F804
:101C3C0041302268D36823F40053D3602046FFF769
:101C4C0063FF2268136923F490431361226853697C
:101C5C0023F02A0353612268D36843F40053D36002
:101C6C0000206064202384F8413084F842306063A3
:101C7C0010BD80F84030FEF741FFD7E701207047D8
:101C8C002DE9F04182B01E4690F84130DBB2202B9A
:101C9C004BD104460D46904600294AD00AB9012082
:101CAC0044E000234364212380F84130FEF7BCFF5D
:101CBC000746A4F82480A4F82680A368B3F5805FB7
:101CCC0002D04FF000080FE02369FBB14FF0000881
:101CDC000AE038F8023B2268C3F308035360E28C35
:101CEC0092B2013A92B2E284E38C9BB28BB1009631
:101CFC003B46002280212046FFF750FFD8B9002D2B
:101D0C00E7D015F8012B23685A60E8E7A8460025B0
:101D1C00EAE700963B46002240212046FFF73EFFB3
:101D2C0058B9202384F8413000E0022002B0BDE80D
:101D3C00F0810120FAE70320F8E70320F6E7000022
:101D4C00FEF72CFF0B480C490C4A002302E0D45838
:101D5C00C4500433C4188C42F9D3094A094C0023EB
:101D6C0001E013600432A242FBD300F00FF8FEF73F
:101D7C00F3FD704700000020740000206C28000860
:101D8C0074000020BC020020FEE7000070B50026A5
:101D9C000C4D0D4C641BA410A64209D100F0BAFCEA
:101DAC0000260A4D0A4C641BA410A64205D170BD36
:101DBC0055F8043B98470136EEE755F8043B984735
:101DCC000136F2E76428000864280008642800083B
:101DDC00682800080EB46FF0004100B59CB01DAB34
:101DEC0002900690079104910848094953F8042B76
:101DFC000591006802A9019300F072F80022029B81
:101E0C001A701CB05DF804EB03B07047240000207E
:101E1C000802FFFF03460244934200D1704703F8C7
:101E2C00011BF9E7704770472DE9F0471F468E6894
:101E3C008246BE420C4690460B682DD8B1F90C2058
:101E4C0012F4906F26D06569096905EB4505A3EB83
:101E5C00010905EBD5757B1C4B446D109D4238BFB9
:101E6C001D46530527D5294600F012FB064660B3E4
:101E7C004A46216900F0DCFAA38923F4906343F00D
:101E8C008003A38126614E4426603E466561A5EB26
:101E9C000905A560BE4200D93E463246414620683F
:101EAC0000F092FB0020A3689B1BA36023683344C3
:101EBC002360BDE8F0872A4600F0A0FB0646002808
:101ECC00E0D15046216900F0C7FB0C23CAF8003062
:101EDC00A3894FF0FF3043F04003A381E9E70000F2
:101EEC002DE9F04F98468B8907461B060D46144684
:101EFC009DB010D50B6973B9402100F0C9FA286068
:101F0C00286130B90C233B604FF0FF301DB0BDE8A9
:101F1C00F08F40236B610023099320238DF8293027
:101F2C0030234FF00109CDF80C80DFF898818DF843
:101F3C002A3023469A4613F8012B0AB1252AF9D1E7
:101F4C00BAEB040B0BD05B46224629463846FFF70A
:101F5C006BFF013000F0A780099A5A4409929AF855
:101F6C000030002B00F09F8000234FF0FF32CDE9B2
:101F7C0005230AF1010A049307938DF853301A9341
:101F8C005446052214F8011B4E4800F043FA049AFB
:101F9C00D8B9D00644BF20238DF85330110744BF65
:101FAC002B238DF853309AF800302A2B15D0544639
:101FBC0000204FF00A0C079A214611F8013B303BE8
:101FCC00092B4BD9B0B1079214E0A0EB080309FA26
:101FDC0003F31343A2460493D2E7039B191D1B681A
:101FEC000391002BBBBF5B4242F0020207930793A5
:101FFC00B8BF049223782E2B0AD163782A2B32D1C6
:10200C00039B02341A1D1B68039243EAE373059386
:10201C00DFF8B4A003225046217800F0FBF938B168
:10202C004022049BA0EB0A0082401343013404932A
:10203C0014F8011B062225488DF8281000F0EAF947
:10204C00002836D0224B1BBB039B073323F007031E
:10205C0008330393099B334409936AE70C46012028
:10206C000CFB0232A8E700234FF00A0C194601348E
:10207C000593204610F8012B303A092A03D9002B7E
:10208C00C6D00591C4E7044601230CFB0121F0E7FF
:10209C0003AB00932A4638460E4B04A9AFF30080DD
:1020AC00421C0646D6D1AB895B063FF52DAF09988D
:1020BC002CE703AB00932A463846064B04A900F0E4
:1020CC007DF8EDE7282800082E28000832280008A3
:1020DC0000000000351E00082DE9F0471646984612
:1020EC008A680B6907469342B8BF1346336091F870
:1020FC0043200C46DDF820900AB10133336023688D
:10210C00990642BF336802333360256815F0060523
:10211C0006D104F1190AE36832689B1AAB422BDC36
:10212C0094F843302268003B18BF0123920630D448
:10213C004146384604F14302C847013023D0236896
:10214C00226903F00603042B14BF002533684FF0FB
:10215C00000608BFE56804F11A0408BFED1A54F82C
:10216C00123C08BF25EAE5759342C4BF9B1AED18D3
:10217C00B5421AD1002008E00123524641463846A8
:10218C00C847013003D14FF0FF30BDE8F08701356F
:10219C00C1E73020E11881F843005A1C94F845102F
:1021AC002244023382F84310C2E7012322464146FF
:1021BC003846C8470130E6D00136D9E72DE9FF474C
:1021CC000F7E9146782F80460C469A460C9E01F164
:1021DC00430207D8622F0AD8002F00F0DD80582F59
:1021EC0000F0C38004F1420684F842703AE0A7F193
:1021FC006303152BF6D801A151F823F061220008D6
:10220C0075220008F1210008F1210008F1210008D5
:10221C00F121000875220008F1210008F1210008C5
:10222C00F1210008F12100088B230008032300088A
:10223C0043230008F1210008F1210008AD23000818
:10224C00F121000803230008F1210008F121000806
:10225C004B23000833681A1D1B68326004F14206D8
:10226C0084F842300123A8E031682368081D3060EF
:10227C001E0601D50D6803E05D06FBD5B1F90050D3
:10228C00002D616878DA2D20002984F84300A160C4
:10229C002DDA0A235D486D421646B5FBF3F103FBBC
:1022AC001157C75D06F8017D2F46BB420D46F4D988
:1022BC00082B0BD12368DF0708D523696168994285
:1022CC00DEBF302306F8013C06F1FF36921B22617B
:1022DC004B4621464046CDF800A003AAFFF7FCFE72
:1022EC0001306FD14FF0FF3004B0BDE8F08723F020
:1022FC0004032360CDE721683368080653F8045BB8
:10230C0002D4490648BFADB26F2F336014BF0A2305
:10231C0008233E48002184F843106668002EA6600E
:10232C00BADB216821F004012160002DB4D1002E0C
:10233C00B2D11646BCE7236843F02003236078270C
:10234C00334884F84570236831681F0651F8045BE4
:10235C0002D45F0648BFADB23160D90744BF43F029
:10236C00200323601DB11023D4E72848E9E7236834
:10237C0023F020032360F6E70A232448CDE73368D3
:10238C002568181D616930602E061B6801D519601F
:10239C0002E06806FBD5198000231646236197E7F7
:1023AC00336800211A1D32601E686268304600F0E6
:1023BC0031F808B1801B606063682361002384F8E6
:1023CC00433085E73246494640462369D0470130C1
:1023DC0088D023689B0714D4E068039B9842B8BF4D
:1023EC00184681E70123324649464046D047013022
:1023FC003FF478AF0135E36803995B1AAB42F1DC2B
:10240C00EAE7002504F11906F5E700BF39280008B2
:10241C004A280008034610B5C9B202449342184634
:10242C0001D1002003E0047801338C42F6D110BDB9
:10243C000A44914200F1FF3300D1704710B511F8F6
:10244C00014B914203F8014FF9D110BD70B50F4EFD
:10245C000C463168054611B900F0A6F830602146EB
:10246C00284600F0A1F8431C03D14FF0FF3420465E
:10247C0070BDC41C24F00304A042F8D0211A2846D5
:10248C0000F092F80130F2D1EFE700BFB00200206B
:10249C002DE9F843CD1C25F0030508350C2D38BF6C
:1024AC000C25002D064601DBA94204D90C23336010
:1024BC000020BDE8F883DFF8D48000F069F8D8F884
:1024CC0000301C4644BB29463046FFF7BFFF431C77
:1024DC00044658D1D8F800402746002F43D1002C91
:1024EC004BD023683946304604EB030900F05CF806
:1024FC00814542D1216830466D1A2946FFF7A6FF67
:10250C0001303AD023682B442360D8F800305A6845
:10251C0062BBC8F800700FE02268521B20D40B2A53
:10252C0017D96119A342256018BF5960636808BFA9
:10253C00C8F8001062514B60304600F02FF804F1DF
:10254C000B00231D20F00700C21A1CBF1B1AA3503E
:10255C00AFE76268A3420CBFC8F800205A60EBE7F3
:10256C0023466468AEE73C467F68B6E71A465B686C
:10257C00A342FBD100235360DEE70C2330463360CB
:10258C0000F00CF894E70560D6E700BFB402002019
:10259C000148FFF747BC00BFA80200200148FFF725
:1025AC0042BC00BFA802002038B50023054D0446EC
:1025BC0008462B6000F0A0F8431C02D12B6803B135
:1025CC00236038BDAC020020884210B501EB020438
:1025DC0002D98442234607D8431EA14208D011F8E1
:1025EC00012B03F8012FF8E7014602448A4200D17F
:1025FC0010BD13F8014D02F8014DF7E72DE9F0413C
:10260C00804615460C4621B91146BDE8F041FFF74E
:10261C003FBF2AB900F020F800242046BDE8F08125
:10262C0000F062F88542064602D8B5EB500FF4D89C
:10263C0029464046FFF72CFF07460028ECD0B54250
:10264C002A46214628BF3246FFF7F2FE2146404675
:10265C0000F002F83C46E0E738B50546002940D0CA
:10266C0051F8043C0C1F002BB8BFE418FFF790FF87
:10267C001C4A136833B9636014602846BDE83840BF
:10268C00FFF78CBFA34208D9206821188B4201BFE9
:10269C0019685B6809182160EDE71A465B680BB195
:1026AC00A342FAD911685018A0420BD120680144FA
:1026BC00501883421160E0D118685B6808441060C0
:1026CC005360DAE702D90C232B60D6E72068211877
:1026DC008B4201BF19685B68091821606360546004
:1026EC00CBE738BDB402002051F8043C181F002B76
:1026FC00BCBF0B58C0187047044A05491368002B1F
:10270C0008BF0B461844106018467047B8020020EA
:10271C00C0020020F8B500BFF8BC08BC9E4670474C
:0C272C00F8B500BFF8BC08BC9E46704722
:10273800425554544F4E325F5452494747455245CB
:1027480044210D0A000000004552524F52210D0A43
:1027580000000000506572696F64206F662074691C
:102768006D657220333A20256C640D0A0000000064
:10277800425554544F4E315F54524947474552458C
:1027880044210D0A0000000054696D6520707265CF
:102798007373696E6720627574746F6E3A20256C66
:1027A800640D0A00425554544F4E315F484F4C4413
:1027B800210D0A00425554544F4E325F484F4C4445
:1027C800210D0A005374617465204F6620427574A8
:1027D800746F6E313A2025640D0A000053746174D9
:1027E80065204F6620427574746F6E323A202564F6
:1027F8000D0A0000000000000102030400000000B0
:102808000000000001020304060708090102000095
:1028180002030405060708090A0B0C0D0E0F101019
:10282800232D302B2000686C4C00656667454647B1
:102838000030313233343536373839414243444534
:1028480046003031323334353637383961626364A3
:0428580065660000B1
:08285C00B0D8FF7F010000006D
:0428640085010008E2
:042868005D01000806
:10286C000F2700001F1C000001000000F4010000F5
:10287C0032000000010100000024F40001000000FF
:10288C001000000028000020000000007001002053
:10289C00D8010020400200200000000000000000D1
:1028AC00000000000000000000000000000000001C
:1028BC00000000000000000000000000000000000C
:1028CC0000000000000000000000000000000000FC
:0428DC0000000000F8
:0400000508001D4D85
:00000001FF
